:100000000C9434000C9451000C9451000C94510049
:100010000C9451000C9451000C9451000C9451001C
:100020000C9451000C9451000C9451000C9451000C
:100030000C9451000C9451000C9451000C945100FC
:100040000C9451000C9451000C9451000C945100EC
:100050000C9451000C9451000C9451000C945100DC
:100060000C9451000C94510011241FBECFEFD8E026
:10007000DEBFCDBF11E0A0E0B1E0ECEDFDE302C0DA
:1000800005900D92AA33B107D9F713E0AAE3B1E0C6
:1000900001C01D92AF33B107E1F70E94B7000C9485
:1000A000EC1E0C9400008AB1806E8AB98BB18F71FE
:1000B0008BB908958130910549F08230910519F08E
:1000C000009739F0089580E090E04DC080E090E026
:1000D00031C080E090E015C05E9A2FEF33ED40E331
:1000E000215030404040E1F700C000005E982FEF03
:1000F00033ED40E3215030404040E1F700C00000C4
:1001000001968617970744F308955F9A2FEF33EC13
:1001100049E0215030404040E1F700C000005F98C6
:100120002FEF33EC49E0215030404040E1F700C070
:10013000000001968617970744F308955D9A2FEF04
:1001400039E648E1215030404040E1F700C000006E
:100150005D982FEF39E648E1215030404040E1F70B
:1001600000C0000001968617970744F30895DF93B7
:10017000CF93CDB7DEB7C455D4400FB6F894DEBFE9
:100180000FBECDBF0E9453008FEF97EAA1E68150CA
:100190009040A040E1F700C0000081E090E061E005
:1001A00070E00E945A0080E00E944C02882331F0E7
:1001B00082E090E061E070E00E945A0081E090E00F
:1001C00062E070E00E945A00CE018B5D9D4F60E0BE
:1001D00071E041E00E94D410882331F082E090E089
:1001E00062E070E00E945A0081E090E063E070E01D
:1001F0000E945A00CE01039661E071E04AE00E943D
:100200001D11882369F080E090E060E071E040E03B
:100210000E94D41082E090E063E070E00E945A00F7
:1002200081E090E064E070E00E945A00CE01039605
:100230006AE071E046E150E09E012F5F3F4F0E946F
:100240007F14882329F489819A818631910589F068
:10025000CE0103960E94FC1680E090E060E071E021
:1002600040E00E94D41082E090E064E070E00E94E0
:100270005A0081E090E065E070E00E945A00CE01F3
:1002800003960E94FC1680E090E060E071E040E0A0
:100290000E94D41080E090E061E070E00E945A007B
:1002A000F9CF84B18C6284B9249883E58CBD08951C
:1002B0008EBD0DB407FEFDCF8EB50895DF92EF928F
:1002C000FF920F931F93CF93DF93D82E7A018B0168
:1002D0002A98CFEFDFE08FEF0E9458018F3F19F08F
:1002E0002197C9F734C08D2D80640E945801C8E160
:1002F000D0E0D801C7010C2E04C0B695A7959795FC
:1003000087950A94D2F70E94580128973FEFC83F7B
:10031000D30779F7DD2029F08D2D883021F08FEF7C
:1003200003C085E901C087E80E945801C0E0D1E020
:100330008FEF0E94580187FF02C02197C9F7DF9114
:10034000CF911F910F91FF90EF90DF9008952A9A1F
:100350008FEFF5CFDF92EF92FF920F931F93D82E7E
:100360007A018B0187E340E050E0BA010E945E0110
:100370008D2DB801A7010E945E011F910F91FF9082
:10038000EF90DF900895CF93DF93AB01BC01809194
:100390003A01833039F089E0440F551F661F771FFB
:1003A0008A95D1F781E10E945E01882379F4C0E04B
:1003B000D0E005C080E1C030D80741F021968FEF32
:1003C0000E9458018F3FB1F38E3F19F02A9A81E0C5
:1003D0000CC0CFE3D1E08FEF0E945801899383E0F6
:1003E000CF33D807C1F72A9A80E0DF91CF910895E3
:1003F000CF93DF93AB01BC0180913A01833039F098
:1004000099E0440F551F661F771F9A95D1F788E131
:100410000E945E01882391F58EEF0E945801CFE380
:10042000D1E089910E94580183E0CF33D807C9F702
:100430008FEF0E9458018FEF0E9458018FEF0E94AA
:1004400058018F718530D1F4C0E0D2E005C080E161
:10045000C030D80799F021968FEF0E9458018F3F46
:10046000B1F38DE040E050E0BA010E945E018823C4
:1004700029F48FEF0E945801882319F02A9A81E00D
:1004800002C02A9A80E0DF91CF91089591E08823FD
:1004900009F490E0892F0895EF92FF920F931F9334
:1004A000CF93DF93882309F086C00E9451012A9AD6
:1004B00010E08FEF0E9458011F5F1431D1F78FE3D6
:1004C0009CE90197F1F700C000002A98C0E0D0E055
:1004D00006C097E2C131D90709F43FC021968FEFDA
:1004E0000E9458018F3FA9F780E040E050E0BA0138
:1004F0000E945E01182F813081F588E04AEA51E0C0
:1005000060E070E00E945E0182FF03C010933A0138
:100510000BC014E08FEF0E9458011150D9F78A3AAE
:10052000E1F482E080933A0180913A01823031F423
:10053000E12CF12C012D20E4122F03C0EE24FF2426
:100540008701C0E0D0E089E2B801A7010E94AA01BA
:100550002196E1E0C63FDE0711F42A9A2CC0EFE3B2
:10056000FCE93197F1F700C00000882361F7809122
:100570003A018230D1F48AE340E050E0BA010E94AF
:100580005E01882391F48FEF0E945801807C803CAB
:1005900019F483E080933A018FEF0E9458018FEFA6
:1005A0000E9458018FEF0E9458012A9A8FEF0E94F3
:1005B000580180E001C081E0DF91CF911F910F9140
:1005C000FF90EF9008958F929F92AF92BF92CF923B
:1005D000DF92EF92FF920F931F93CF93DF93590116
:1005E0006A014801882329F56115710511F1EB01B4
:1005F00079018A0116C0C801B7010E94C30108949D
:10060000E11CF11C011D111D8823A9F4DE01EFE39B
:10061000F1E080E092E001900D920197E1F7C05087
:10062000DE4FC7018A199B098815990520F380E0E0
:1006300003C084E001C081E0DF91CF911F910F9151
:10064000FF90EF90DF90CF90BF90AF909F908F90F2
:1006500008958F929F92AF92BF92CF92DF92EF92C6
:10066000FF920F931F93CF93DF9359016A014801C3
:10067000882329F56115710511F1EB0179018A01D2
:1006800016C0AFE3B1E0FE0180E092E001900D9270
:100690000197E1F7C801B7010E94F801C050DE4F91
:1006A0000894E11CF11C011D111D882351F4C701A0
:1006B0008A199B098815990520F380E003C084E01E
:1006C00001C081E0DF91CF911F910F91FF90EF90DA
:1006D000DF90CF90BF90AF909F908F900895FA01D8
:1006E0008823E9F4613039F06130B8F0623041F0CC
:1006F0006330B9F40AC080E492E4AFE0B0E009C02E
:1007000080E092E09183808308C081E090E0A0E0E7
:10071000B0E080839183A283B38380E0089584E076
:10072000089584E0089560E070E08EE39BE508950D
:10073000FC01518140E0208130E0242B352BC901A0
:100740000895FC01238130E040E050E0542F432F16
:10075000322F2227828190E0A0E0B0E0282B392BB5
:100760004A2B5B2B542F432F322F2227818190E07D
:10077000A0E0B0E0282B392B4A2B5B2B542F432FC2
:10078000322F2227808190E0A0E0B0E0282B392B87
:100790004A2B5B2BB901CA010895FC014193DC018E
:1007A00011965C931197618372830895CF93DF93C1
:1007B000EC01CB01BA0162507040804090402C891E
:1007C0003D894E895F892250304040405040621739
:1007D00073078407950788F42A853B8540E050E03D
:1007E0000E94831E9B01AC018CA59DA5AEA5BFA553
:1007F000280F391F4A1F5B1F03C020E030E0A9010A
:10080000B901CA01DF91CF9108950F931F93CF9340
:10081000DF93FC01EB01198626893789408D518DC4
:10082000211531054105510509F445C080E090E0EE
:1008300020E030E05EE2A28DB38DA20FB31F4C9199
:100840002F5F3F4F403299F0453009F445EE293093
:10085000310531F4DE01A80FB91F19965C9301969A
:10086000DE01A80FB91F19964C93199701962B30EA
:10087000310509F78C0F9D1FDC0119961C92A28D82
:10088000B38D1B968C918F738887028D138DC80151
:100890004C960E94A103688379838A839B83C80155
:1008A00046960E9498039F838E83C80148960E94B3
:1008B00098039D838C83DF91CF911F910F910895B1
:1008C000CF93DF93EC01E881F981309791F0DF015C
:1008D0008D91813258F08A33D9F711C03296EA17D8
:1008E000FB0739F4803329F4B983A88320E030E092
:1008F00002C02FEF3FEFC901DF91CF9108958081B2
:10090000982F90539A3050F3F4CF0F931F93CF93B7
:10091000DF93EC018B01009799F0E881F981309722
:1009200079F08081882361F02A813B8186819781DB
:100930002817390729F481810E94460280FF0BC0E5
:1009400089E020E030E0F80131832083DF91CF910E
:100950001F910F9108952881398180E0F4CF8F9203
:100960009F92AF92BF92CF92DF92EF92FF920F933E
:100970001F93CF93DF93EC018C818823C9F170E33F
:10098000C72ED12CCC0EDD1E2C8D3D8D4E8D5F8D56
:100990008981B60101E010E00E942903882331F526
:1009A0001C82EC8CFD8C0E8D1F8D288D398D4A8D0F
:1009B0005B8D8CA19DA1AEA1BFA147015801881AF2
:1009C000990AAA0ABB0A82169306A406B50680F401
:1009D0008B81823069F42E0D3F1D401F511F89818C
:1009E000B60101E010E00E94290302C081E001C0CD
:1009F00080E0DF91CF911F910F91FF90EF90DF90FA
:100A0000CF90BF90AF909F908F9008958F929F92BC
:100A1000AF92BF92CF92DF92EF92FF920F931F930C
:100A2000CF93DF93EC017A018B010E94AF048823FE
:100A3000D1F5CE01B801A7010E94D6035B016C017C
:100A40006C8F7D8F8E8F9F8FE0E38E2E912C8C0E7E
:100A50009D1E80E092E0D4019C011D922150304007
:100A6000E1F7EE24FF2403C00894E11CF11C8A8501
:100A70009B85E816F90678F4970140E050E02A0DCE
:100A80003B1D4C1D5D1D8981B40101E010E00E94F9
:100A90002903882349F381E02A853B85E216F30682
:100AA00019F480E001C081E0DF91CF911F910F9197
:100AB000FF90EF90DF90CF90BF90AF909F908F907E
:100AC0000895AF92BF92CF92DF92EF92FF920F9371
:100AD0001F93DF93CF930F92CDB7DEB75C016A010E
:100AE0007B01FC01848D958DA68DB78D4817590724
:100AF0006A077B0701F1C5010E94AF04982F882384
:100B0000D9F4B501605D7F4FF5018181A7019601A0
:100B100001E010E099830E94E3029981882329F083
:100B200091E0CC24CA94DC2C7601F501C48ED58EDC
:100B3000E68EF78E01C090E0892F0F90CF91DF9164
:100B40001F910F91FF90EF90DF90CF90BF90AF90EB
:100B500008950F931F93CF93DF93EC011C828FEFC7
:100B60009FEFDC018C8F9D8FAE8FBF8FCE010E94D7
:100B70006105882309F078C0CE01825D9D4F0E94F7
:100B800098038C0188A98B3E29F0893E19F0883E94
:100B900009F063C02AEA0535120761F4CE018E57C9
:100BA0009F4F61E271E048E050E00E94C41E009750
:100BB00009F45DC0CE01CB960E9498034DAD9C0117
:100BC00021503040282339232115310509F045C033
:100BD00022E08030920708F440C022E08030920783
:100BE000E1F54423D1F1242F30E0C901019782239C
:100BF0009323009791F5CE01CE960E94980300971B
:100C000061F1FE01E05CFF4F808190E0019782304E
:100C1000910518F5CE018F5B9F4F0E9498030097B6
:100C2000E1F0CE018D5B9F4F0E94980380389105C3
:100C300068F4CE01805B9F4F0E94A103603020E0EA
:100C4000720721E0820720E0920738F0CE018A5B2C
:100C50009F4F0E949803009751F48AEA05351807C0
:100C600049F422E030E008C024E030E005C020E094
:100C700030E002C023E030E0C901DF91CF911F9145
:100C80000F9108954F925F926F927F928F929F92F1
:100C9000AF92BF92CF92DF92EF92FF920F931F938A
:100CA000DF93CF93CDB7DEB7A1970FB6F894DEBF31
:100CB0000FBECDBF6B01DB011D921C9249A30E94A8
:100CC000600449A197FD71C2FC01EE0FFF1FE55CB6
:100CD000FE4F008111810115110509F468C2F6016A
:100CE000118300838EEFC82EC422D8018C918823F3
:100CF00061F011968C910E94460280FD06C0CC20C6
:100D000009F457C282FF55C258C2F801108281818E
:100D10000E944C0280FD4FC2CC2011F082FD4DC2DA
:100D2000C80140E050E0BA010E94A9058230910557
:100D3000D1F56E010894C11CD11C560126EC31E09E
:100D4000360168018901C801C0968C0D9D1D0E9465
:100D5000A103D5016D937D938D939D935D01005FFC
:100D60001F4FB2E006301B0771F786016301B1E146
:100D7000AB2EB12CAC0EBD1EF6014191519161918B
:100D800071916F01411551056105710539F0C80177
:100D90000E94A9058230910518F40DC083E090E00F
:100DA000CA14DB0449F78430910509F408C2823083
:100DB000910508F006C2D8015C962D913D914D91A8
:100DC0005C915F972D8B3E8B4F8B588FC801CB96D4
:100DD0000E949803B2E080309B0709F0F2C1C8017D
:100DE0008A5B9F4F0E9498039C0140E050E0298B52
:100DF0003A8B4B8B5C8B211531054105510549F42C
:100E0000C8018C5A9F4F0E94A103698B7A8B8B8BF0
:100E10009C8B89899A89AB89BC89F801808F918FD5
:100E2000A28FB38FE05CFF4F9080D80113969C9205
:100E30001397892D8150823008F0C3C1DD96AC90A4
:100E4000DD97BB241B96BC92AE921A97A114B104F5
:100E500009F4B7C1C50101978A219B21009709F0C8
:100E6000B0C1C8018F5B9F4F0E9498032C01F8010D
:100E7000918780878F709070009709F0A2C1C80198
:100E80008D5B9F4F0E9498036C01EE24FF24C114D8
:100E9000D104E104F10439F4C801805B9F4F0E9442
:100EA000A1036B017C01C801CE960E9498033C010E
:100EB000009709F486C1292D30E040E050E06989AF
:100EC0007A898B899C890E94831E698F7A8F8B8F88
:100ED0009C8F930140E050E02D8F3E8F4F8F58A3A1
:100EE0003201A4E076946794AA95E1F788249924C6
:100EF000660E771E881E991E620E731E841E951E36
:100F0000C614D704E804F90408F45BC1C701B601AC
:100F10006619770988099909950140E050E00E9417
:100F2000A21E211531054105510509F44AC1263F8C
:100F30008FEF38078FEF48078FE0580708F041C15F
:100F4000263F9FEF390790E0490790E0590760F48A
:100F5000263FAFE03A07A0E04A07A0E05A0740F07A
:100F6000F2E0AF2EB12C07C0E3E0AE2EB12C03C0EF
:100F700071E0A72EB12C62E0C62ED12CE12CF12C11
:100F8000C20ED31EE41EF51EF801C48AD58AE68A75
:100F9000F78A2D893E894F89588DD80190962D93D7
:100FA0003D934D935C9393972D8D3E8D4F8D58A11E
:100FB0008D899E89AF89B88D280F391F4A1F5B1F05
:100FC000D80194962D933D934D935C9397978D897B
:100FD0009E89AF89B88D680E791E8A1E9B1ED80126
:100FE0009C966D927D928D929C929F97B3E0AB16EA
:100FF000B10401F5C801865A9F4F0E9498030097DB
:1010000009F0DFC04114510409F0DBC0C801845A63
:101010009F4F0E94A103F80160A771A782A793A721
:10102000D701C60142E0880F991FAA1FBB1F4A952E
:10103000D1F72DC04114510409F4C3C0898D9A8D94
:10104000AB8DBC8D820F931FA41FB51FF80180A725
:1010500091A7A2A7B3A7D701C601880F991FAA1FFE
:10106000BB1FF2E0AF16B10491F08C0D9D1DAE1DBB
:10107000BF1DB695A79597958795A70196012170F5
:10108000307040705070820F931FA41FB51F8150A5
:101090009E4FAF4FBF4FF9E0B695A79597958795AF
:1010A000FA95D1F729893A894B895C89281739073C
:1010B0004A075B0708F485C08FEF9FEFDC01F8015A
:1010C000808B918BA28BB38B84879587A687B787FC
:1010D00080E88583F3E0AF16B10409F056C0C8017B
:1010E000805A9F4F0E9498038130910509F04DC0AE
:1010F0004D895E896F89788D4F5F5F4F6F4F7F4F4E
:10110000C8010E946105882309F03FC0D8011596E7
:101110001C92C801C0960E94A1036235B2E57B070C
:10112000B1E68B07B1E49B0781F5C8018C5E9D4F4A
:101130000E94A1036237E2E77E07E1E48E07E1E661
:101140009E0719F5C801845D9D4F0E94A103603080
:10115000F0E07F07F5E58F07FAEA9F07B1F4C801D1
:10116000885E9D4F0E94A103D80150966D937D9398
:101170008D939C935397C801845E9D4F0E94A10359
:10118000F8016487758786879787D801AC9280912C
:101190003D0190913E01019690933E0180933D0167
:1011A00017969C938E93169704C08BE00BC08CE02F
:1011B00009C080E007C083E005C08AE003C081E089
:1011C00001C08DE0A1960FB6F894DEBF0FBECDBF73
:1011D000CF91DF911F910F91FF90EF90DF90CF9013
:1011E000BF90AF909F908F907F906F905F904F9047
:1011F00008956F927F928F929F92AF92BF92CF92FB
:10120000DF92EF92FF920F931F93DF93CF930F9292
:10121000CDB7DEB73C016A017B014801590142307C
:1012200051056105710508F4E0C0F30184899589D1
:10123000A689B789481759076A077B0708F0D5C000
:101240008081823009F470C0833009F48EC081300F
:1012500009F0CBC08A01169507950C0D1D1DA8013C
:10126000452F5527469560E070E084A195A1A6A181
:10127000B7A1480F591F6A1F7B1FC3010E94610558
:10128000282F882309F0B2C0C80191700F5F1F4F4B
:1012900021E0E22EF12CEC20FD20E114F10451F0CC
:1012A000F301E80FF91F30A93F70282D2295207F08
:1012B000232B01C0282D860D971DDC01D0962C9381
:1012C00081E0F3018483A801452F5527469560E00E
:1012D00070E084A195A1A6A1B7A1480F591F6A1F6C
:1012E0007B1FC3010E946105282F882309F07EC05F
:1012F0001170E114F10449F0B4E0B694A794979406
:101300008794BA95D1F7882D08C0F301E00FF11F3B
:1013100080A9807F992D9F70892B060D171DD801FC
:10132000D0968C93D0971DC0452F562F672F7727C7
:10133000F30184A195A1A6A1B7A1480F591F6A1F67
:101340007B1FC3010E946105282F882309F04EC02E
:101350008601000F111F1170F301E00FF11F80AA29
:1013600091AA81E0F301848341C0E7E07695679517
:1013700057954795EA95D1F7F30184A195A1A6A1C8
:10138000B7A1480F591F6A1F7B1FC3010E94610547
:10139000282F882359F58FEF9FEFAFEFBFE088220A
:1013A0009922AA22BB228601000F111F000F111FD4
:1013B0001170005D1F4F060D171DC80129830E9483
:1013C000A103AB01BC01407050706070707F482970
:1013D00059296A297B29C8010E94CD0381E0D301E4
:1013E00014968C931497298101C022E0822F0F90CC
:1013F000CF91DF911F910F91FF90EF90DF90CF90F1
:10140000BF90AF909F908F907F906F9008950F93B3
:101410001F93CF93DF93EC010E94AF04982F882392
:1014200009F05BC08D81813009F04DC01D8288813B
:10143000833009F048C08E01005D1F4F80E092E0CC
:10144000D8019C011D9221503040E1F7C80142E5CE
:1014500052E561E671E40E94CD03CE018C5E9D4FA2
:1014600042E752E761E471E60E94CD034889598959
:101470006A897B89CE01885E9D4F0E94CD034C8591
:101480005D856E857F85CE01845E9D4F0E94CD0374
:10149000CE01845D9D4F40E050E065E57AEA0E9410
:1014A000CD03898128A139A14AA15BA12F5F3F4FBC
:1014B0004F4F5F4F2C8F3D8F4E8F5F8FB80101E0F4
:1014C00010E00E942903898160E040E050E00E9422
:1014D0006F0391E0882309F490E0892FDF91CF9189
:1014E0001F910F910895DF92EF92FF920F931F9338
:1014F000CF93DF93D82EEB01CB014A960E9498033D
:101500007C0100E010E08D2D833069F4CE0144961B
:101510000E949803A0E0B0E0DC0199278827E82A20
:10152000F92A0A2B1B2BB701C801DF91CF911F911C
:101530000F91FF90EF90DF900895FB01228F338F82
:10154000DC018C91833029F49A0144275527248BA0
:10155000358B0895BF92CF92DF92EF92FF920F9357
:101560001F93CF93DF93EC016A017B014230510559
:101570006105710508F4A5C08C899D89AE89BF8974
:10158000481759076A077B0708F09BC0888182309B
:1015900009F456C0833009F471C0813009F091C05C
:1015A0008A0116950795040F151FA801452F552789
:1015B000469560E070E08CA19DA1AEA1BFA1480F4F
:1015C000591F6A1F7B1FCE010E946105882309F005
:1015D0007DC0F801F170EC0FFD1FB0A80F5F1F4F29
:1015E000A801452F5527469560E070E08CA19DA18C
:1015F000AEA1BFA1480F591F6A1F7B1FCE010E94D9
:101600006105882309F062C02B2D30E011700C0FAA
:101610001D1FF80190A980E0282B392BF1E0CF2283
:10162000DD24C114D10431F0B4E036952795BA9584
:10163000E1F721C040E050E03F704070507049C079
:10164000452F562F672F77278CA19DA1AEA1BFA153
:10165000480F591F6A1F7B1FCE010E946105882316
:10166000A9F5C601880F991F9170C0968C0F9D1F18
:101670000E9498039C0140E050E02BC0E7E0769583
:10168000679557954795EA95D1F78CA19DA1AEA195
:10169000BFA1480F591F6A1F7B1FCE010E94610521
:1016A0008823A1F4C601880F991F880F991F917094
:1016B000C0968C0F9D1F0E94A1039B01AC015F701F
:1016C00008C021E030E040E050E003C02FEF3FEFE2
:1016D000A901B901CA01DF91CF911F910F91FF902C
:1016E000EF90DF90CF90BF9008952F923F924F924E
:1016F0005F926F927F928F929F92AF92BF92CF92A2
:10170000DF92EF92FF920F931F93DF93CF9300D05E
:1017100000D0CDB7DEB78C0149835A836B837C83BD
:10172000DC012D903C901197411551056105710523
:10173000A1F4F10184849584A684B7848114910472
:10174000A104B10499F184899589A689B78988167D
:101750009906AA06BB0650F52EC0C10149815A81DF
:101760006B817C810E94AA0A6B017C016230710549
:101770008105910508F41CC18FEFC8168FEFD806BC
:101780008FEFE8068FEFF80609F417C1F10184899D
:101790009589A689B789C816D906EA06FB0608F412
:1017A0000CC189809A80AB80BC8005C061E0862E28
:1017B000912CA12CB12CF10180899189A289B38946
:1017C0000097A105B10509F4EFC089819A81AB8129
:1017D000BC8188169906AA06BB0609F051C02401EF
:1017E00035010894411C511C611C711C8489958928
:1017F000A689B789481659066A067B0628F052E082
:10180000452E512C612C712CD8018D919C91B301E6
:10181000A2010E94AA0A6B017C0161307105810559
:10182000910509F4CAC06F3FEFEF7E07EFEF8E0717
:10183000EFEF9E0709F4C1C061157105810591059F
:10184000C9F0D1011C962D913D914D915C911F974E
:10185000223031054105510598F054968D919D91A6
:101860000D90BC91A02D281739074A075B0708F493
:10187000BDC006C0411451046104710409F040C0A8
:10188000240135010894411C511C611C711CF1019B
:1018900084899589A689B789481659066A067B0600
:1018A00060F0F2E08F169104A104B10408F47CC04A
:1018B00042E0442E512C612C712CD8018D919C91C9
:1018C000B301A2010E94AA0A6B017C016115710596
:1018D00081059105A9F0613071058105910509F433
:1018E0006CC06F3FEFEF7E07EFEF8E07EFEF9E07C5
:1018F00009F463C0481459046A047B0419F654C0FF
:1019000073016201C101B301A2010FEF1FEF980142
:101910000E94F908882309F040C089819A81AB812F
:10192000BC810097A105B10559F0C10149815A81D7
:101930006B817C81930182010E94F908882369F5FB
:10194000D1011C96CD92DD92ED92FC921F9750969C
:101950002D913D914D915C91539721153105410594
:10196000510559F154968D919D910D90BC91A02DEA
:101970000297A109B10982179307A407B507E8F0F8
:101980002150304040405040F101208B318B428B40
:10199000538B85818160858310C0813049F4CC24CC
:1019A000CA94DC2C760109C0CC24DD24760105C064
:1019B00031E0C32ED12CE12CF12CB601C7010F90E0
:1019C0000F900F900F90CF91DF911F910F91FF908B
:1019D000EF90DF90CF90BF90AF909F908F907F90CF
:1019E0006F905F904F903F902F90089549015A015A
:1019F00047CF6F927F928F929F92AF92BF92CF927A
:101A0000DF92EF92FF920F931F93CF93DF93EC013E
:101A10003B01C880D9808E849F84A888B98880E2E1
:101A200090E0A0E0B0E0880E991EAA1EBB1E90E0D8
:101A3000891690E0990690E2A90690E0B90620F098
:101A40001E8A1F8A188E198E8E899F89A88DB98D3E
:101A50000097A105B10509F4AFC0A501940131704B
:101A600040705070211531054105510509F097C0AE
:101A70000196A11DB11D8E8B9F8BA88FB98FEA880F
:101A8000FB880C891D89E114F10401051105B1F4ED
:101A9000A5019401E5E05695479537952795EA9578
:101AA000D1F7D60118968D919C911997A0E0B0E0DE
:101AB000281739074A075B07E8F571C0F6018285E8
:101AC00093850197A0E0B0E0A501940179E05695D7
:101AD0004795379527957A95D1F782239323A423A9
:101AE000B5230097A105B10509F059C0C601B80199
:101AF000A7010E94AA0A7B018C0162307105810551
:101B0000910508F45DC08FEFE8168FEFF8068FEFB0
:101B100008078FEF180709F455C0F60184899589E5
:101B2000A689B789E816F9060A071B0758F1611458
:101B3000710429F41E8A1F8A188E198E3DC04A89A5
:101B40005B896C897D89CE010E94750B7B018C01BC
:101B5000611571058105910589F161307105810576
:101B6000910571F18FEFE8168FEFF8068FEF0807F8
:101B70008FEF180739F1C601B801A7010E940605C9
:101B8000882301F5EA8AFB8A0C8B1D8BC601B801FC
:101B9000A7010E94D6036E8B7F8B888F998F8E86CC
:101BA0009F86A88AB98AC4019170C0968C0D9D1D2C
:101BB0009B8F8A8F80E007C084E005C087E003C068
:101BC00082E001C081E0DF91CF911F910F91FF90E2
:101BD000EF90DF90CF90BF90AF909F908F907F90CD
:101BE0006F9008956F927F928F929F92AF92BF9263
:101BF000CF92DF92EF92FF920F931F93CF93DF93D9
:101C00003C014A015B01B901A801FC01C081D181FD
:101C1000F2E08F169104A104B10408F469C08C8924
:101C20009D89AE89BF8988169906AA06BB0608F069
:101C30005FC0011511052105310561F0CE010FEFDF
:101C40001FEF98010E94F908E82F882319F053C06C
:101C500046015701F30180819181B501A4010E94E1
:101C6000AA0A6B017C016115710581059105F1F1ED
:101C70006130710581059105D9F18FEFC8168FEF9D
:101C8000D8068FEFE8068FEFF806A1F1CE01B50177
:101C9000A40100E010E098010E94F908E82F8823D1
:101CA00051F5288939894A895B898C889D88AE8855
:101CB000BF88C501B4016250704080409040261733
:101CC00037074807590758F42F5F3F4F4F4F5F4F73
:101CD000288B398B4A8B5B8B8D8181608D83C814F7
:101CE000D904EA04FB0408F4B3CF05C0E0E003C064
:101CF000E2E001C0E1E08E2FDF91CF911F910F91C3
:101D0000FF90EF90DF90CF90BF90AF909F908F901B
:101D10007F906F9008950F931F93CF93DF93EC0103
:101D20000881198184E01DC0C8010E9461058823D3
:101D300019F5EA8DFB8D2081222339F193859F735C
:101D40009C83253E39F02E3229F09F3019F09F7187
:101D50009830B1F4CE0160E070E00E94F90C882365
:101D600059F44E895F89688D798D4115510561055A
:101D70007105D1F6882321F01E8A1F8A188E198ECC
:101D8000DF91CF911F910F91089584E0F5CFCF920D
:101D9000DF92EF92FF920F931F93CF93DF93EC01AB
:101DA000C880D9801E861F86188A198AEE80FF8017
:101DB00008851985E114F10401051105E9F4F6011E
:101DC0008081833040F080A591A5A2A5B3A500979E
:101DD000A105B10579F4F60180859185009709F494
:101DE0004EC080A591A5A2A5B3A58E8B9F8BA88F71
:101DF000B98F31C07C018D01F601828593850097F2
:101E000009F588819981B801A7010E94AA0A7B017E
:101E10008C016F3FFFEF7F07FFEF8F07FFEF9F07FB
:101E200061F182E0E816F1040105110540F1F601C7
:101E300084899589A689B789E816F9060A071B07D8
:101E400000F31DC0C601B801A7010E94D6036E8B26
:101E50007F8B888F998FEA8AFB8A0C8B1D8B8E89EA
:101E60009F89A88DB98D0097A105B10541F0C601E4
:101E7000C0969B8F8A8F80E003C081E001C082E022
:101E8000DF91CF911F910F91FF90EF90DF90CF9056
:101E900008950F931F93CF93DF93EC01088119816D
:101EA0000E94C70E8823B1F44E895F89688D798DB1
:101EB000C8010E946105882369F4EA8DFB8D808149
:101EC000853E59F0882349F0CE0161E070E00E9420
:101ED000F90CE8CF843009F51FC04E895F89688D01
:101EE000798DC8010E9461058823B9F4EA8DFB8DC4
:101EF00090E2DF011D929A95E9F74A8D9B8D242F80
:101F0000392FF9016C969BE0099001929150E1F70D
:101F100091E0F801948301C087E0DF91CF911F9198
:101F20000F9108952F923F925F926F927F928F92BE
:101F30009F92AF92BF92CF92DF92EF92FF920F9358
:101F40001F93DF93CF930F92CDB7DEB71C01DC0157
:101F50008D909C901197862F972F6C01FC0120810A
:101F600001962F32D1F32C35C1F3D10116961D9273
:101F70001D921D921C9219978081803240F480E856
:101F8000F10187A3C1010E94C70E182FEAC00CE11E
:101F9000602E712C620C731C15E0512EC30160E29F
:101FA00070E04BE050E00E94DA1EEE24FF2400E0D7
:101FB00010E0B8E0AB2EB12CF601E00FF11F20814C
:101FC0000F5F1F4F213208F45FC02F3211F02C3504
:101FD00061F4F601E00FF11F02C00F5F1F4F819106
:101FE0008F32D9F38C35C9F34FC02E3219F0EA1471
:101FF000FB0478F0FBE0AF16B10409F4B1C02E3257
:1020000009F0AEC0A8E0EA2EF12CFBE0AF2EB12C17
:10201000D3CF213808F4B9C0203A30F0203E08F47C
:10202000B4C02D3F08F0B1C0F601E00FF11F3081C0
:10203000303408F495C03F3730F03F3709F490C092
:102040003D3F08F08DC0C5010197E816F90608F07C
:1020500087C00F5F1F4FF101EE0DFF1D248F089405
:10206000E11CF11CF101EE0DFF1D348F09C0822F20
:1020700081568A3108F42052F101EE0DFF1D248FA4
:102080000894E11CF11C98CFE114F10409F468C034
:10209000D1015C968C915C97853E19F45C965C92BC
:1020A0005C97C00ED11E213220F0F6018081813272
:1020B00010F404E001C000E0D10197960C939797CB
:1020C000ED90FC90C1010E94C70E182F882361F586
:1020D000F10146895789608D718DC7010E946105A4
:1020E000182F882309F5D1015A96ED91FC915B9741
:1020F00080818823D9F023852F7314962C9314970D
:10210000838583FD0BC0CF01B3014BE050E02983F1
:102110000E94C41E2981009709F443C0C10160E0F8
:1021200070E00E94F90CD1CF1430D9F40023B1F043
:1021300014E017C024FF12C0F10166857785717025
:10214000605D7F4F680D791DD4018C910E94730AE8
:10215000F101668377838087918720CF15E001C0E6
:1021600016E0812F0F90CF91DF911F910F91FF907B
:10217000EF90DF90CF90BF90AF909F908F907F9027
:102180006F905F903F902F9008958AE291E0622FC8
:1021900070E029830E94E11E2981009709F467CF2E
:1021A000DFCF002339F2DDCFDF93CF93CDB7DEB79A
:1021B00027970FB6F894DEBF0FBECDBF9C838B83ED
:1021C0007E836D837A836983CE0101964F830E945B
:1021D00060044F8197FD25C0FC01EE0FFF1FE55CF9
:1021E000FE4FA081B181109719F0118210821C92CC
:1021F000EB81FC81309751F081831082DC01AA0FC2
:10220000BB1FA55CBE4F1196FC93EE93442359F07F
:10221000CE010596BE016D5F7F4F40E00E944206F1
:1022200003C08BE001C080E027960FB6F894DEBFB4
:102230000FBECDBFCF91DF9108955F926F927F92D5
:102240008F929F92AF92BF92CF92DF92EF92FF92C6
:102250000F931F93DF93CF93CDB7DEB7E2970FB6FF
:10226000F894DEBF0FBECDBF7C017CA76BA70097A3
:1022700009F498C1AFE3DA2ED422CE018B96BE01C9
:102280006F5F7F4F4D2D0E944206582E882309F024
:1022900085C189819A81D7018D939C939C838B837F
:1022A0006BA57CA5CE0103960E94920F882319F49A
:1022B0009AA597FD86E02D2D30E0A9014C71507054
:1022C0004115510509F47AC0882369F0843009F07A
:1022D000CEC0CE0103960E94490F882309F0C7C0E3
:1022E000B8E0DB2A06C0D2FC76C18F81817109F08B
:1022F00076C1D3FE6DC00E9493033B014C018D8DCE
:102300009E8D0E96B401A3010E94CD038D8D9E8DEE
:102310004696B401A3010E94CD030D8D1E8DE98167
:10232000FA818081B8010E94730A3B014C0180E26E
:10233000F80183876D8D7E8D89819A8120E030E060
:10234000A9010E949D0A8D8D9E8D4C9640E050E023
:10235000BA010E94CD03E981FA8181E0848361148E
:10236000710481049104A1F1848D958DA68DB78DA2
:102370008DA79EA7AFA7B8ABCE010396B401A3016A
:1023800000E010E098010E94F20D882309F06FC070
:1023900089819A814DA55EA56FA578A90E946105E6
:1023A000E981FA81089461087108810891086486BE
:1023B000758686869786882359F059C0882309F048
:1023C00056C08F8184FD09C1D1FE02C080FD07C1C6
:1023D000D3FE02C090E4D92AA980BA80F501848D89
:1023E000958DA68DB78DF701848F958FA68FB78FAA
:1023F0000D8D1E8D11A300A3D5018C91B8010E94F3
:10240000730AF7016683778380879187C8014C96AA
:102410000E94A103D7011A966D937D938D939C938F
:102420001D97F5018681978113969C938E93129741
:102430001E96DC921E971F961C921F9758961D920F
:102440001D921D921C925B97F701108A118A128AC5
:10245000138AC7018296FC0180E092E0DF019C01B3
:102460001D9221503040E1F7D5FC03C09DC0582E8D
:1024700095C0D7011A96AD90BD90CD90DC901D9778
:10248000A114B104C104D10409F48EC0F701A08ADB
:10249000B18AC28AD38AE981FA81628473848824EA
:1024A0009924F9E0660C771C881C991CFA95D1F7E1
:1024B00016964D915D916D917C911997002711278A
:1024C0009801061917092809390922C0F7018081E6
:1024D000918129AB3AAB0E94AA0AAB01BC0129A9A0
:1024E0003AA9423051056105710558F081E04F3F2E
:1024F000FFEF5F07FFEF6F07FFEF7F0719F080E047
:1025000001C082E0A00EB11EC21ED31E882331F48A
:102510006A147B048C049D04C8F201C0582ED701B4
:1025200054964D935D936D937C9357975520B1F5D9
:10253000D601C5019170A070B0700097A105B105DA
:1025400099F109811A81C8010E94D60361157105AC
:102550008105910509F1A6019501E9E05695479598
:1025600037952795EA95D1F7260F371F481F591F32
:10257000F701208F318F428F538FB7016E5D7F4FF0
:10258000D80111968C9101E010E00E94E3028823AB
:1025900059F05524539402C042E0542EF7011182A1
:1025A000108202C039E0532E852DE2960FB6F894C2
:1025B000DEBF0FBECDBFCF91DF911F910F91FF9076
:1025C000EF90DF90CF90BF90AF909F908F907F90D3
:1025D0006F905F90089588E04ACF84E048CF87E00D
:1025E00046CF2F923F924F925F926F927F928F923F
:1025F0009F92AF92BF92DF92EF92FF920F931F9341
:10260000DF93CF93CDB7DEB728970FB6F894DEBF30
:102610000FBECDBF7C01062FA72E2A0138872F833E
:10262000F90111821082BE016F5F7F4F0E94850405
:10263000D82E882309F04AC1F701D784DD2009F09C
:1026400045C1868580FF40C182859385A485B58577
:102650002089318942895389821B930BA40BB50BC6
:10266000920140E050E082179307A407B50708F4F1
:102670002C01802F9A2D9C838B83B7016E5D7F4F39
:102680007E836D831CC1F70180899189A289B389FA
:102690009C01AD013170407050702115310541052C
:1026A000510509F0D2C09C01AD0169E056954795EE
:1026B000379527956A95D1F7E981FA8102851385C7
:1026C00001501040022313230115110531F5009725
:1026D000A105B10531F4F701668177818085918587
:1026E00009C0F7014489558966897789808191817C
:1026F0000E94AA0A6230710581059105E8F06F3FDA
:10270000FFEF7F07FFEF8F07FFEF9F0709F492C0EE
:10271000F701648B758B868B978B29803A80F70144
:102720004489558966897789C1010E94D60361155C
:1027300071058105910531F482E0F701878732E068
:10274000D32EC4C0380188249924660E771E881EB3
:10275000991E5201AB2CBB24A694A114B10409F418
:1027600041C0F10122853385C501800F911F2817D3
:10277000390718F45901A01AB10AF10181816B815E
:102780007C81A401930185010E94E302882309F062
:1027900051C0F701868587FF20C0808D918DA28D65
:1027A000B38D86199709A809B909950140E050E051
:1027B00082179307A407B50780F4FC01FE2FEE27CC
:1027C000FF0F6B817C81E60FF71FAD81BE8180E03A
:1027D00092E00D9001920197E1F78501102F0027FB
:1027E000110F4EC0F701208D318D428D538D26156E
:1027F00037054805590521F1868587FF0EC0F1018F
:1028000081816D817E8101E010E00E94290388238F
:1028100089F4F70186858F778687E981FA8181813E
:102820006D817E81A401930101E010E00E94E3022A
:10283000882331F081E0F7018787DD24D39446C0F7
:10284000F701608E718E828E938EF7012089318917
:1028500042895389C901917060E072E0681B790B6D
:1028600082016415750508F48B0131708D819E819C
:10287000280F391F8B819C81B901A8010E94D11EAC
:10288000401A510AEF81F88580819181800F911F54
:10289000918380836B817C81600F711F7C836B834C
:1028A00020E030E0F70180899189A289B389800F07
:1028B000911FA21FB31F808B918BA28BB38B4114EE
:1028C000510409F0E0CE02C0B7E0DB2E8D2D289632
:1028D0000FB6F894DEBF0FBECDBFCF91DF911F9131
:1028E0000F91FF90EF90DF90BF90AF909F908F90EF
:1028F0007F906F905F904F903F902F9008952F9210
:102900003F924F925F926F927F928F929F92AF927F
:10291000BF92DF92EF92FF920F931F93DF93CF93BB
:10292000CDB7DEB728970FB6F894DEBF0FBECDBF88
:102930007C01062F872E1A0138872F83D9011D921B
:102940001C92BE016F5F7F4F0E948504D82E8823A2
:1029500009F0B7C1F701D784DD2009F0B2C186853F
:1029600081FFADC180899189A289B389910140E03D
:1029700050E0280F391F4A1F5B1F281739074A07E5
:102980005B0718F41C0120943094802F982D9C83B1
:102990008B83A7014E5D5F4F5E834D8383C1F7013B
:1029A00080899189A289B3899C01AD013170407001
:1029B0005070211531054105510509F01CC19C01DC
:1029C000AD0109E056954795379527950A95D1F7BA
:1029D000E981FA8162847384089461087108622233
:1029E00073226114710409F049C00097A105B10573
:1029F00089F4D70116966D917D918D919C911997CF
:102A0000611571058105910599F4C70140E050E019
:102A1000BA0106C0F7014489558966897789C701DB
:102A20000E94750B611571058105910509F43EC180
:102A3000613071058105910509F44EC06F3FBFEF0C
:102A40007B07BFEF8B07BFEF9B0709F4C7C0D70118
:102A500054966D937D938D939C93579716962D91D5
:102A60003D914D915C911997211531054105510515
:102A700029F4F7016683778380879187D7011E96B3
:102A80008C911E9787FF19C0E981FA8158962D9184
:102A90003D914D915C915B9781816D817E8101E0DB
:102AA00010E00E942903882309F098C0D7011E96E0
:102AB0008C911E978F771E968C9309811A81F7014E
:102AC0004489558966897789C8010E94D6036115B2
:102AD00071058105910541F482E0D7011F968C9321
:102AE0001F9712E0D12EEDC04301AA24BB24860E0D
:102AF000971EA81EB91E2101452C55244694411449
:102B0000510409F447C0F80122853385C201860DBE
:102B1000971D2817390718F4290146185708D801B6
:102B200011968C916B817C81A501940182010E9498
:102B30002903882309F052C0F701808D918DA28D61
:102B4000B38D88199909AA09BB09920140E050E0A8
:102B500082179307A407B507C0F4FC01FE2FEE27E8
:102B6000FF0FAD81BE814B815C81E40FF51F80E0DA
:102B700092E001900D920197E1F7D7011E968C919A
:102B80001E978F771E968C931E978201102F002719
:102B9000110F54C0F701808D918DA28DB38D8815D2
:102BA0009905AA05BB0501F120893189428953891C
:102BB00082859385A485B585281739074A075B0761
:102BC00098F4D80111968C916D817E81A5019401B4
:102BD00001E010E00E94E302882331F081E0F70178
:102BE0008787DD24D3946DC0D70158968D929D922E
:102BF000AD92BC925B97F70180899189A289B389D4
:102C00009C01317040E052E0421B530B81014215A0
:102C1000530508F48A019C0131708D819E81280F33
:102C2000391FC9016B817C81A8010E94D11ED70187
:102C30001E968C911E9780681E968C93201A310ADE
:102C4000EF81F88580819181800F911F918380832E
:102C50004B815C81400F511F5C834B8320E030E04F
:102C6000F70180899189A289B389080F191F2A1F4A
:102C70003B1FD70150960D931D932D933C93539773
:102C80001A968D919D910D90BC91A02D0817190752
:102C90002A073B0710F48C019D01F7010287138777
:102CA000248735872114310409F079CED7011E9687
:102CB0008C911E9780641E968C931E9702C077E0BD
:102CC000D72E8D2D28960FB6F894DEBF0FBECDBF40
:102CD000CF91DF911F910F91FF90EF90DF90BF9008
:102CE000AF909F908F907F906F905F904F903F90AC
:102CF0002F900895EF92FF920F931F93DF93CF933E
:102D000000D0CDB7DEB77C01BE016F5F7F4F0E9460
:102D10008504882309F067C0D7011E969C911E97F1
:102D200096FF61C097FF17C0E981FA81B7016E5D18
:102D30007F4F58962D913D914D915C915B9781818C
:102D400001E010E00E942903882309F04BC0F7013D
:102D500086858F778687D7015C964D915D916D91C1
:102D60007C915F9789819A810E9461058823D9F5BA
:102D7000F70100A111A1D8011B968C911B978062CD
:102D80001B968C9326813781408551858081918166
:102D9000B8010E949D0AF7014285538564857585B7
:102DA000C8014C960E94CD030E949303AB01BC0165
:102DB000C80146960E94CD03D80152961C925297A4
:102DC00053961C9289819A8121E0FC0124830E9400
:102DD000070AD7011E969C911E979F7B1E969C9377
:102DE0001E9701C081E00F900F90CF91DF911F914E
:102DF0000F91FF90EF9008950F931F93DF93CF9360
:102E000000D0CDB7DEB78C010E947A16882359F422
:102E1000C801BE016F5F7F4F0E948504882319F4AB
:102E2000F801118210820F900F90CF91DF911F91C6
:102E30000F9108955F926F927F928F929F92AF92BF
:102E4000BF92CF92DF92EF92FF920F931F93DF9387
:102E5000CF93CDB7DEB72A970FB6F894DEBF0FBE7B
:102E6000CDBF7C015A016B01BE016F5F7F4F0E9495
:102E70008504582E882309F0B0C1D7011F965C90B5
:102E80001F97552009F0A9C11A968D919D910D901B
:102E9000BC91A02D8A159B05AC05BD0530F4F7014A
:102EA000268521FD02C05C016D01F70180899189B1
:102EB000A289B389108A118A128A138AA114B104D3
:102EC000C104D10409F42AC1E981FA8162847384BE
:102ED0008824992449E0660C771C881C991C4A9523
:102EE000D1F70097A105B10509F446C09C01AD01D9
:102EF00021503040404050402B833C834D835E83C3
:102F0000C601B5016150704080409040A40193011A
:102F10000E94A21E2F83388749875A876B817C8144
:102F20008D819E81A40193010E94A21E8F819885AC
:102F3000A985BA8582179307A407B507E8F0882703
:102F40009927DC0186199709A809B9092B813C81C9
:102F50004D815E8182239323A423B523F701808BC7
:102F6000918BA28BB38BA81AB90ACA0ADB0A4489CF
:102F700055896689778937C0D70116964D915D913D
:102F80006D917C911997411551056105710521F5E8
:102F9000C70140E050E0BA010E94750BAB01BC01D3
:102FA000413051056105710521F482E0F701878701
:102FB00061C04F3FFFEF5F07FFEF6F07FFEF7F0736
:102FC00031F481E0D7011F968C931F97FCC0F70165
:102FD0004683578360877187D70154964D935D93DD
:102FE0006D937C935797411551056105710509F45F
:102FF00095C053C0F70180899189A289B389860D54
:10300000971DA81DB91D808B918BA28BB38B8685D4
:1030100081FF0BC0C7010E94750BAB01BC014115BC
:1030200051056105710541F44AC0D7018D919C910C
:103030000E94AA0AAB01BC014F3FBFEF5B07BFEF85
:103040006B07BFEF7B0709F4BBC042305105610538
:10305000710558F0E981FA8184899589A689B78933
:10306000481759076A077B0740F082E0D7011F968F
:103070008C931F9732E0532EB0C08B819C81AD8121
:10308000BE81A80EB91ECA1EDB1ED70154964D93F1
:103090005D936D937C9357970BC088279927DC012C
:1030A00086199709A809B9098B839C83AD83BE83D0
:1030B0006A147B048C049D0408F49CCF03C0AA24EA
:1030C000BB246501F70180899189A289B3898A0DA2
:1030D0009B1DAC1DBD1D808B918BA28BB38BD6012C
:1030E000C5019170A070B0700097A105B105B1F055
:1030F00089819A810E94D603611571058105910528
:1031000009F4B3CF29E0D694C794B794A7942A952D
:10311000D1F7A60EB71EC81ED91E03C0AA24BB2411
:103120006501F70180899189A289B3892285338558
:1031300044855585281739074A075B0738F4828785
:103140009387A487B5872685206426879170A07011
:10315000B0700097A105B10509F43FC0D70158969A
:103160002D913D914D915C915B97A216B306C406DB
:10317000D50699F11E968C911E9787FF13C0E981A1
:10318000FA81B7016E5D7F4F818101E010E00E94FE
:1031900029038823A9F4D7011E968C911E978F7757
:1031A0001E968C93E981FA81B7016E5D7F4F818114
:1031B000A601950101E010E00E94E302882331F0AE
:1031C00081E0F70187875524539407C0D7015896AB
:1031D000AD92BD92CD92DC925B97852D2A960FB66B
:1031E000F894DEBF0FBECDBFCF91DF911F910F913D
:1031F000FF90EF90DF90CF90BF90AF909F908F9017
:103200007F906F905F9008950F931F93DF93CF93FC
:1032100000D000D0CDB7DEB78C017C836B830097E4
:1032200009F442C0CE010396BE016F5F7F4F40E0BC
:103230000E9442068823A1F589819A81D8018D9345
:103240009C936B817C81C8010E94920F882311F5A9
:10325000F80187A187FD12C0848184FF20C0E98125
:10326000FA81D8015A966D917C915B9780810E947A
:10327000730AF8016683778380879187E981FA81F1
:1032800086819781D80113969C938E931297C801DB
:103290000E94C70E843019F0882339F001C085E000
:1032A000F8011182108201C089E00F900F900F90F9
:1032B0000F90CF91DF911F910F9108950F931F935E
:1032C000DF93CF9300D0CDB7DEB78C01BE016F5F27
:1032D0007F4F0E948504882319F4F801118210821F
:1032E0000F900F90CF91DF911F910F910895DF9272
:1032F000EF92FF920F931F93DF93CF9300D0CDB740
:10330000DEB78C017B01BE016F5F7F4F0E94850499
:10331000D82E8823E9F4E114F10429F4C8010E94AD
:10332000C70ED82E1AC0F7011186C8010E948B0E55
:10333000843011F08823E1F4C801B7010E9405042C
:10334000C80160E070E00E94F90C843089F405C087
:10335000E114F10411F0F70111868D2D0F900F90FB
:10336000CF91DF911F910F91FF90EF90DF90089523
:10337000D82E882391F3EFCFDF92EF92FF920F9335
:103380001F93DF93CF93CDB7DEB7AA970FB6F8940C
:10339000DEBF0FBECDBF9AA789A78B01CE0189964C
:1033A0007E010894E11CF11CB70140E00E94420636
:1033B000D82E8823A9F469A57AA5C7010E94920F87
:1033C000D82E882369F488A587FD08C0011511054A
:1033D00061F0C701B8010E94050407C056E0D52E70
:1033E0000115110511F0F80111868D2DAA960FB661
:1033F000F894DEBF0FBECDBFCF91DF911F910F912B
:10340000FF90EF90DF9008953F924F925F926F92FE
:103410007F928F929F92AF92BF92CF92DF92EF9264
:10342000FF920F931F93DF93CF9300D000D000D073
:10343000CDB7DEB79C838B837E836D837A01CE010B
:103440000396BE016F5F7F4F40E00E944206382E18
:10345000882309F0B1C0C980DA80F701D182C08227
:10346000F60180899189A289B38944885588668844
:103470007788A301920122503040404050402817E5
:1034800039074A075B0738F0ED81FE81808391831D
:10349000A283B38391C0F60180818130B9F572E0D7
:1034A000872E912CA12CB12CEE24FF248701C6017C
:1034B000B501A4010E94AA0A6F3FFFEF7F07FFEF4B
:1034C0008F07FFEF9F0709F473C061307105810515
:1034D000910509F46FC0611571058105910529F405
:1034E0000894E11CF11C011D111D0894811C911C04
:1034F000A11CB11CE981FA8184899589A689B789C3
:1035000088169906AA06BB0690F26FC0F60184A041
:1035100095A0A6A0B7A0CC24DD24EE24FF2487012B
:10352000C114D10471F489819A81B501A4010E946A
:103530006105882309F03FC00894811C911CA11CDF
:10354000B11CE981FA812081C601C096223071F454
:103550008E0F9F1F0E949803009729F40894E11C86
:10356000F11C011D111DC601029611C08E0F9F1F77
:103570000E94A1039F70611571058105910529F4D1
:103580000894E11CF11C011D111DC601049608944C
:103590004108510861087108411451046104710423
:1035A00021F16FEFC62E61E0D62EC822D922B8CF06
:1035B00081E001C082E0382E832D26960FB6F89464
:1035C000DEBF0FBECDBFCF91DF911F910F91FF9056
:1035D000EF90DF90CF90BF90AF909F908F907F90B3
:1035E0006F905F904F903F900895ED81FE81E08253
:1035F000F18202831383E981FA81E08AF18A028BE6
:10360000138B858181608583D7CFDF92EF92FF9204
:103610000F931F93DF93CF9300D0CDB7DEB77C011C
:10362000BE016F5F7F4F0E948504D82E882309F06A
:1036300090C0D7011F96DC901F97DD2009F089C04C
:103640001E968C911E9781FF82C050968D919D9100
:103650000D90BC91A02DF7012285338544855585B9
:1036600082179307A407B50708F073C00097A10558
:10367000B10599F44681578160857185C70100E0E5
:1036800010E098010E94F20DD82ED70116961D92D7
:103690001D921D921C9219972BC0F70144895589E0
:1036A00066897789808191810E94AA0AAB01BC0159
:1036B0004F3FFFEF5F07FFEF6F07FFEF7F0799F0C7
:1036C000413051056105710509F04EC00FC0D701A9
:1036D00054960D911D912D913C915797C7010E94D1
:1036E000F20DD82E05C0DD24D39402C0F2E0DF2E07
:1036F000F70180899189A289B38982879387A487FA
:10370000B587868580648687DD20E1F487FF21C048
:10371000E981FA81B7016E5D7F4FD70158962D91EF
:103720003D914D915C915B97818101E010E00E9499
:103730002903882329F4F70186858F77868709C0B6
:10374000DD24D394D7011F96DC921F9702C0E7E0D7
:10375000DE2E8D2D0F900F90CF91DF911F910F9145
:10376000FF90EF90DF900895E981FA81848995892F
:10377000A689B789481759076A077B0708F0B8CFA9
:10378000A6CFBF92CF92DF92EF92FF920F931F933B
:10379000DF93CF93CDB7DEB7C455D0400FB6F894C2
:1037A000DEBF0FBECDBF8E010D5A1F4FF8019183B2
:1037B0008083C801BE016F5F7F4F42E00E944206D6
:1037C000882309F04CC089819A819C838B83F801FE
:1037D00060817181CE0103960E94920F882309F0C7
:1037E0003EC08AA5807A21F4BF80B0FE49C01AC0CD
:1037F00086E035C0DCA6CBA6E9AAFAAA0BAB1CABC7
:10380000ABE2CA2ED12CCC0EDD1EC6010E94C70E23
:10381000882329F5C6010E948B0E882319F0843075
:10382000D9F11DC087E01BC0ED8DFE8D85EE808334
:1038300081E0F6018483E114F1040105110559F0DA
:10384000CE010396B801A70100E010E098010E94A4
:10385000F20D882321F489819A810E94070ACC5AAB
:10386000DF4F0FB6F894DEBF0FBECDBFCF91DF9113
:103870001F910F91FF90EF90DF90CF90BF90089530
:10388000C980DA806D8D7E8DF60180810E94730A79
:103890007B018C01B4FCAECFCB80DC80498D5A8D8E
:1038A0006B8D7C8DC6010E946105882309F4BCCF15
:1038B000D6CF6F927F928F929F92AF92BF92CF920C
:1038C000DF92FF920F931F93DF93CF93CDB7DEB7B5
:1038D000EA970FB6F894DEBF0FBECDBF9AAF89AF9F
:1038E000CE01C996BE016F5F7F4F42E00E94420643
:1038F000F82E882309F0C4C089819A819A8B898B1C
:1039000069AD7AADCE0141960E94920F882339F4B9
:1039100088AD807A09F0C9C088E0F82EB1C0843043
:1039200009F0ADC089819A819C838B83CE01039677
:1039300040E050E0BA010E94750B5B016C0161151B
:1039400071058105910581F081E0A816B104C104DB
:10395000D10469F0EFEFAE16EFEFBE06EFEFCE0643
:10396000EFEFDE0639F008C007E0F02E05C012E0E8
:10397000F12E02C0FF24F3940E9493033B014C01FB
:10398000FF2009F072C089819A81B601A5010E94C9
:103990000605F82E882309F068C029813A81205D48
:1039A0003F4FC90160E270E04BE050E00E94DA1E38
:1039B000E981FA818EE280AB80E183AFCF018A5B3F
:1039C0009F4FB401A3010E94CD0389819A81BC015C
:1039D000605D7F4FA60195010E949D0A89819A81B1
:1039E000C096DC019096FC0180E201900D9281501E
:1039F000E1F789819A81FC01EF5AFF4F2EE2208383
:103A0000BC01605B7F4F2F89388D498D5A8D0E9494
:103A10009D0AE981FA8111E01483CE0141960E944A
:103A2000490FF82E882309F58BA59CA50E96B401A5
:103A3000A3010E94CD038BA59CA54696B401A301CA
:103A40000E94CD036BA57CA589819A81A601950171
:103A50000E949D0AEBA5FCA580E1838789819A815C
:103A6000FC0114830E94070A0AC0CE010396B60126
:103A7000A50100E010E098010E94F20D01C0F82EAF
:103A80008F2DEA960FB6F894DEBF0FBECDBFCF9153
:103A9000DF911F910F91FF90DF90CF90BF90AF907B
:103AA0009F908F907F906F900895B6E0FB2EE8CFA7
:103AB0008F929F92AF92BF92DF92EF92FF920F93FD
:103AC0001F93DF93CF93CDB7DEB7C657D0400FB665
:103AD000F894DEBF0FBECDBF8E010D581F4FD80129
:103AE0008D939C93CE018B589F4FFC017183608313
:103AF0000E946004C801BE016F5F7F4F42E00E94D8
:103B00004206882309F0BAC089819A819CA38BA3BD
:103B1000D8016D917C91CE0183960E94920F8823EB
:103B200009F0ACC0FE01E65BFF4F8081807A09F4AA
:103B3000B8C086E0A3C0F801268137814085518551
:103B400089A59AA5ABA5BCA5281739074A075B0725
:103B500009F085C0268537854089518989A99AA9A8
:103B6000ABA9BCA9281739074A075B0709F077C03A
:103B700003C0843009F082C08E01055B1F4FC8016D
:103B80000E94490F882309F079C0D8015A96ED9117
:103B9000FC915B97CF010D96AE01405F5F4F23E133
:103BA000DA010D90AD01DC010D92CD012150C1F77C
:103BB0008E85838784FD02C08062838709811A8194
:103BC000DD24D394D8011496DC921497838584FF66
:103BD0008DC09BE4E92EF12CEC0EFD1E29A53AA523
:103BE0004BA55CA5D70116968D909D90AD90BC908D
:103BF0001997281539054A055B0509F477C0D801DE
:103C00008C91BF010E94730AAB01BC01C8010E94E4
:103C1000D603AB01BC01411551056105710509F1E0
:103C2000C8010E946105E981FA81882339F5DF0125
:103C3000AF5ABF4F8C918E3209F058C0BF01605B04
:103C40007F4FD70116962D913D914D915C9119971B
:103C5000CF010E949D0AE981FA81D48247C088E0A1
:103C60000DC082E00BC0EDADFEAD85EE808381E03E
:103C7000F801848389819A810E94070ACA58DF4F1C
:103C80000FB6F894DEBF0FBECDBFCF91DF911F916D
:103C90000F91FF90EF90DF90BF90AF909F908F902B
:103CA0000895DE0113963DAD2EAD832F922FFC01BA
:103CB00080E201900D928150E1F7DE01A55BBF4FDC
:103CC000FE01B39688E201900D928150E1F78E01DA
:103CD000055B1F4FFE01EB58FF4F60817181C801EA
:103CE0000E94920F882309F426CF43CF0BA11CA179
:103CF00049AD5AAD6BAD7CADC8010E94610588230A
:103D000009F4B1CFBBCF629FD001739FF001829FB6
:103D1000E00DF11D649FE00DF11D929FF00D839F5A
:103D2000F00D749FF00D659FF00D9927729FB00DF7
:103D3000E11DF91F639FB00DE11DF91FBD01CF010A
:103D400011240895A1E21A2EAA1BBB1BFD010DC070
:103D5000AA1FBB1FEE1FFF1FA217B307E407F5073B
:103D600020F0A21BB30BE40BF50B661F771F881F17
:103D7000991F1A9469F760957095809590959B01AD
:103D8000AC01BD01CF010895FB01DC0104C08D91A0
:103D90000190801921F441505040C8F7881B990BBD
:103DA0000895FB01DC0102C001900D92415050408A
:103DB000D8F70895DC0101C06D9341505040E0F701
:103DC0000895FC018191861721F08823D9F799275E
:0C3DD00008953197CF010895F894FFCFBB
:103DDC0000746573742E7478740048656C6C6F2075
:103DEC0066726F6D20415652204661744673210AEB
:103DFC00004641543332202020002A2B2C3A3B3CE5
:0A3E0C003D3E5B5D7C223F7F00001D
:00000001FF
