:100000000C94E1000C94FE000C94FE000C94FE0095
:100010000C94FE000C94FE000C94FE000C94FE0068
:100020000C94FE000C94FE000C94FE000C94FE0058
:100030000C94FE000C94FE000C94FE000C94FE0048
:100040000C94FE000C94FE000C94FE000C94FE0038
:100050000C94FE000C94FE000C94FE000C94FE0028
:100060000C94FE000C94FE0000000000003E51497C
:10007000453E00427F400042615149462141454B87
:10008000311814127F1027454545393C4A494930FB
:1000900001710905033649494936064949291E7C3B
:1000A0001211127C7F494949363E414141227F412C
:1000B00041221C7F494949417F090909013E4149C3
:1000C000497A7F0808087F00417F41002040413F76
:1000D000017F081422417F404040407F020C027F94
:1000E0007F0408107F3E4141413E7F090909063ED9
:1000F0004151215E7F09192946464949493101018B
:100100007F01013F4040403F1F2040201F3F4038BB
:10011000403F63140814630708700807615149459C
:100120004300005F00000007000700147F147F14E5
:10013000242A7F2A1223130864623649552250006C
:1001400005030000001C2241000041221C0014088D
:100150003E081408083E080800503000000808084F
:100160000808006060000020100804020036360015
:100170000000563600000814224100141414141410
:1001800000412214080201510906324979413E7F9B
:10019000091929464122140800462919097F040239
:1001A00001020440404040400001020400083E417A
:1001B000410000007F00000041413E080804081093
:1001C000080011241FBECFEFD8E0DEBFCDBF11E085
:1001D000A0E0B1E0E4E3FBE002C005900D92AC3B8F
:1001E000B107D9F712E0ACEBB1E001C01D92AC351C
:1001F000B107E1F70E945E010C9498050C94000091
:10020000CF93DF93EC010E94D7028FEF99EFA0E02C
:1002100081509040A040E1F700C0000082E06AE019
:100220000E94C002CE010E94D303DF91CF910895B6
:100230008FEF91EEA4E081509040A040E1F700C024
:1002400000000E9493018FEF99EFA0E08150904051
:10025000A040E1F700C000008FEF99EFA0E08150CF
:100260009040A040E1F700C000000E9450028FEFD4
:1002700099EFA0E081509040A040E1F700C000005D
:100280000E94D7028FEF99EFA0E081509040A040EC
:10029000E1F700C000000E946E0408958FEF99EF0F
:1002A000A0E081509040A040E1F700C0000080E055
:1002B00090E063E070E00E949A01F9CF0F931F93E2
:1002C000DF93CF93CDB7DEB7E2970FB6F894DEBFDA
:1002D0000FBECDBF0E94180180E090E061E070E0A9
:1002E0000E949A018E010F5F1F4FC8010E94C40433
:1002F000882349F081E090E063E070E00E949A0179
:10030000C8010E9400018FEF93E2A4EF815090405A
:10031000A040E1F700C0000080E090E063E070E002
:100320000E949A01E2CF8AB1806E8AB98BB18F7137
:100330008BB908958130910549F08230910519F00B
:10034000009739F0089580E090E04DC080E090E0A3
:1003500031C080E090E015C05E9A2FEF33EC49E0A9
:10036000215030404040E1F700C000005E982FEF80
:1003700033EC49E0215030404040E1F700C000003C
:1003800001968617970744F331C05F9A2FEF33EC3D
:1003900049E0215030404040E1F700C000005F9844
:1003A0002FEF33EC49E0215030404040E1F700C0EE
:1003B000000001968617970744F318C05D9A2FEF47
:1003C00039E648E1215030404040E1F700C00000EC
:1003D0005D982FEF39E648E1215030404040E1F789
:1003E00000C0000001968617970744F38FEF93ED46
:1003F000A0E381509040A040E1F700C000000895C4
:100400001092B9008CE08093B80084E08093BC0027
:10041000089594EA9093BC009091BC0097FFFCCFA4
:100420009091B900987F983089F48093BB0084E85C
:100430008093BC008091BC0087FFFCCF9091B900F5
:10044000987F81E0983119F480E0089581E0089563
:1004500084E98093BC008091BC0084FDFCCF0895AA
:100460008093BB0084E88093BC008091BC0087FF30
:10047000FCCF9091B900987F81E0983209F480E038
:1004800008951F93182F88E70E94090280E00E94B8
:100490003002812F0E9430020E9428021F9108958D
:1004A0008FEF91EEA4E081509040A040E1F700C0B2
:1004B00000008EEA0E94410280E20E94410280E038
:1004C0000E94410281E20E94410282E00E944102B8
:1004D00081E80E94410282E20E94410280E00E9483
:1004E000410287E00E94410283ED0E94410280E0C8
:1004F0000E94410280E40E94410281EA0E9441027E
:1005000088EC0E94410288EA0E9441028FE30E9427
:1005100041028AED0E94410282E10E94410281E88B
:100520000E9441028FE70E94410284EA0E94410238
:1005300086EA0E94410285ED0E94410280E80E9405
:1005400041028DE80E94410284E10E94410289ED4E
:100550000E94410282E20E9441028BED0E94410210
:1005600080E20E9441028FEA0E9441028FEF91EEE9
:10057000A4E081509040A040E1F700C00000089541
:100580001F93883008F087E067FD6FE7162F1E5F26
:1005900080550E944102812F8F700E944102812F5D
:1005A00082958F7080610E9441021F9108950F9380
:1005B0001F9310E0812F60E00E94C00288E70E9434
:1005C000090280E40E94300200E080E00E943002D4
:1005D0000F5F0038D1F70E9428021F5F183051F7D3
:1005E00080E060E00E94C0021F910F9108950F9378
:1005F0001F93CF93DF93982F91569A3108F480522E
:10060000982F90539A3010F48F52ACC0982F915479
:100610009A3110F48653A6C0803209F462C0813248
:1006200009F461C0823209F460C0833209F45FC00A
:10063000843209F45EC0853209F45DC0863209F463
:100640005CC0873209F45BC0883209F45AC0893231
:1006500009F459C08A3209F458C08B3209F457C0E2
:100660008C3209F456C08D3209F455C08E3209F42B
:1006700054C08F3209F453C08A3309F452C08B330B
:1006800009F451C08C3309F450C08D3309F44FC0C4
:100690008E3309F44EC08F3309F44DC0803409F411
:1006A0004CC08B3509F44BC08C3509F44AC08D35EC
:1006B00009F449C08E3509F448C08F3509F447C0A4
:1006C000803609F446C08B3709F445C08C3709F4ED
:1006D00044C08D3709F443C08E3709F042C083E42B
:1006E00041C080E03FC084E23DC085E23BC086E27D
:1006F00039C087E237C088E235C089E233C08AE278
:1007000031C08BE22FC08CE22DC08DE22BC08EE277
:1007100029C08FE227C080E325C081E323C082E3A4
:1007200021C083E31FC084E31DC085E31BC086E3B3
:1007300019C087E317C088E315C089E313C08AE3B3
:1007400011C08BE30FC08CE30DC08DE30BC08EE3B3
:1007500009C08FE307C080E405C081E403C082E4E0
:1007600001C081E095E0899FE001112488E70E94A3
:10077000090280E40E9430028E010B5F1F4FFE01D0
:10078000E859FF4F84910E9430022196C017D1078B
:10079000B1F780E00E9430020E942802DF91CF91E1
:1007A0001F910F910895EF92FF92CF93DF93E82E60
:1007B000E7017E01F92EE70102C00E94F70289914C
:1007C0008823D9F7DF91CF91FF90EF9008950E9491
:1007D000D70280E060E00E94C00280E091E00E94C9
:1007E000D30382E060E00E94C0028BE091E00E94AF
:1007F000D30384E060E00E94C00289E191E00E949E
:10080000D30386E060E00E94C00287E291E00E948C
:10081000D3030895CF93DF93EC010E94D7028FEFAB
:1008200099EFA0E081509040A040E1F700C00000A7
:1008300082E06AE00E94C002CE010E94D3038FEFE3
:1008400097EAA1E681509040A040E1F700C0000087
:10085000DF91CF9108950F931F93DF93CF930F9262
:10086000CDB7DEB78B0189830E94D7022FEF39EF16
:1008700040E0215030404040E1F700C00000898155
:100880006AE00E94C002C8010E94D3038FEF97EA7A
:10089000A1E681509040A040E1F700C000000F9019
:1008A000CF91DF911F910F910895282F392FF901D2
:1008B00006C09091C00095FFFCCF8093C600819147
:1008C0008823B9F708958FE291E00E940A0480918D
:1008D000C00087FFFCCF8091C60008951092C5002C
:1008E00087E68093C40088E18093C10086E080930E
:1008F000C2008FEF93E2A4EF81509040A040E1F757
:1009000000C000008CE391E00E9455048FEF97EA4D
:10091000A1E681509040A040E1F700C0000081E4D2
:1009200091E00E9455048FEF9BE7A2E9815090402F
:10093000A040E1F700C000008CE491E00E94550463
:100940008FEF97EAA1E681509040A040E1F700C008
:10095000000085E591E00E9455048FEF93EDA0E340
:1009600081509040A040E1F700C0000081E691E096
:100970000E9455048FEF9BE7A2E981509040A04070
:10098000E1F700C000000895EF92FF920F931F93CC
:10099000CF93DF937C01ECEBF1E080EADF011D9265
:1009A0008A95E9F78F01EF010E94630489938AE633
:1009B00091E00E940A048CEB91E064E771E00E94F0
:1009C0007E05009729F089E791E00E940A0408C09B
:1009D0008CEB91E00E940A04B2E0CB35DB0721F7F3
:1009E0008CE791E00E940A048AE891E00E94550495
:1009F0008FEF9BE7A2E981509040A040E1F700C053
:100A000000008AE991E00E940A04C0E0D0E00E9460
:100A10006304D8018D938D018AE691E00E940A0457
:100A20008CEB91E064E771E00E947E05009729F06D
:100A300088EA91E00E940A0408C08CEB91E00E94D1
:100A40000A042196CF39D10511F7C454DE4F18821C
:100A50008FEA91E00E940A040CEB11E024C08C01A3
:100A60000E5F1F4F84EB91E00E940A04C8016DE005
:100A700070E00E946405EC010097A9F086EB91E01C
:100A80000E940A04C01BD10BC701B801AE010E942D
:100A90006F05CE0DDF1D1882C7016AE370E00E946A
:100AA0006405009749F4C80168EB71E00E947E0577
:100AB0000097A9F680E001C081E0DF91CF911F91FE
:100AC0000F91FF90EF900895FC018191861721F01E
:100AD0008823D9F7992708953197CF010895FB010D
:100AE000DC014150504048F001900D920020C9F7C0
:100AF00001C01D9241505040E0F70895FB01519113
:100B00005523A9F0BF01DC014D9145174111E1F7D3
:100B100059F4CD010190002049F04D91401541114B
:100B2000C9F3FB014111EFCF81E090E001970895F7
:040B3000F894FFCF67
:100B34003031323334353637383900414243444555
:100B4400464748494A4B4C4D004E4F50515253541E
:100B540055565758595A005445535420575900690B
:100B6400646B20696D20737475636B0041540D0AC6
:100B74000041542B435245473F0D0A0041542B4337
:100B840053510D0A0041542B434D47463D310D0A44
:100B94000041542B4342430D0A0072656369657634
:100BA400696E67004F4B0D0A006F6B0073746172BE
:100BB400742073656E64696E670041542B434D471E
:100BC4004C3D22414C4C220D0A0073746172742016
:100BD40072656164696E67006E6F74206F6B0046A6
:0C0BE400696E6500310032000D0A23002C
:00000001FF
